:0300000002056B8B
:0C056B00787FE4F6D8FD7581280202D9E3
:09058B00436C6F636B3A003A0007
:1002D90012053812050C7BFF7A05798B7D017F01A8
:1002E9001204AEE51BFB7A00750C027D017F021238
:1002F90004EF7BFF7A0579927D037F021204AEE554
:100309001CFB7A00750C027D047F021204EF7BFF4F
:100319007A0579927D067F021204AEE51AFB7A000E
:0C032900750C027D077F021204EF80B704
:03000B00020335B8
:09033500C0E0C0D075D000C00783
:10033E00758A18758CFC0519E51970020518C39499
:10034E000AE5189400402A751800751900AF1A05B1
:10035E001AEF943C401B751A00AF1C051CEF943C21
:10036E00400F751C00AF1B051BEF94184003751B47
:01037E00007E
:07037F00D007D0D0D0E0321E
:10052300EF1FAC0670011E4C600A7D027CEFDCFEFF
:04053300DDFC80EC7F
:0105370022A1
:06055C00C2A58F80D2A7AA
:080562007F027EEFDEFEDFFCEC
:01056A00226E
:0A057700C2A612055CC2A7020562CD
:1004D100CFCDCFCECCCE1202847C007D0A12028415
:0404E100ED2430FFD7
:0A04E500D2A612055CC2A702056250
:100538007F381205777F0C1205777F061205777FC3
:040548000102057730
:10054C00EDBF0103148002243F4480FF1205772283
:0A058100AC0312054CAF040204E5C0
:0604AE008B088A09890A8F
:1004B40012054CE4FDAB08AA09A90A8D82758300D4
:0C04C400120245FF60061204E50D80E9FD
:0104D0002209
:0C047B007F0AEA24FFFDE434FFFC7E0051
:080487008E0D8F0E8C0F8D10FD
:10048F007F017E00E4FBEBC39510E50F6480F874E9
:0E049F008098500AAC0DAD0E1202720B80E870
:0104AD00222C
:0404EF008A0A8B0BDF
:1004F30012054CAA0CEAD39400400D12047BAC0AFB
:08050300AD0B1204D11A80EDCA
:01050B0022CD
:1003D00012054CC3EA64809480400B7F2B1204E525
:1003E0008A168B17800E7F2D1204E5C3E49BF51748
:1003F000E49AF516AA15EAD39400400D12047BACDA
:0904000016AD171204D11A80EDAB
:0104090022D0
:04040A008A1F8B209A
:10040E0012054CAA21EAD3940040297F1012047DD4
:10041E00AC1FAD20CFCDCFCECCCE120284EF540F79
:10042E00FEC3940AEE5004243080022437FF1204D7
:04043E00E51A80D16A
:010442002297
:040443008A248B2557
:1004470012054CAA26EAD394004028EA24FFFDE4CB
:1004570034FFFC7F027E00120487AC24AD25CFCD8C
:10046700CFCECCCE120284EF54012430FF1204E524
:030477001A80D216
:01047A00225F
:10000E00E4F5277590FFC2932097137F14FE120517
:10001E00233097FD7F147E0012052375270120964D
:10002E00147F147E001205233096FD7F147E00127D
:10003E0005237527052095147F147E0012052330A5
:10004E0095FD7F147E001205237527092094147FD9
:10005E00147E001205233094FD7F147E00120523BA
:10006E0075270D7590FFC2922097147F147E001293
:10007E0005233097FD7F147E00120523752702207D
:10008E0096147F147E001205233096FD7F147E0099
:10009E001205237527062095147F147E0012052362
:1000AE003095FD7F147E0012052375270A209414C7
:1000BE007F147E001205233094FD7F147E001205FE
:1000CE002375270E7590FFC2912097147F147E0022
:1000DE001205233097FD7F147E001205237527032A
:1000EE002096147F147E001205233096FD7F147E19
:1000FE00001205237527072095147F147E00120524
:10010E00233095FD7F147E0012052375270B209456
:10011E00147F147E001205233094FD7F147E00128E
:10012E00052375270F7590FFC2902097147F147EBC
:10013E00001205233097FD7F147E001205237527CC
:10014E00042096147F147E001205233096FD7F1432
:10015E007E001205237527082095147F147E001249
:10016E0005233095FD7F147E0012052375270C2084
:10017E0094147F147E001205233094FD7F147E00AC
:08018E00120523752710AF27AD
:010196002246
:10050C005389F0438901758A18758CFCC28DD28C85
:07051C00D2A9D2AFC2B9223F
:100386005075736820427574746F6E3A204B310055
:100396005075736820427574746F6E3A204B320044
:1003A6005075736820427574746F6E3A204B330033
:1003B6005075736820427574746F6E3A204B340022
:0A03C600202020202020202020000D
:10019700E4F52812053820B1237F147E00120523C9
:1001A70020B10F7BFF7A0379867D017F011204AEB0
:1001B70080EE7F147E0012052375280120B0237F6F
:1001C700147E0012052320B00F7BFF7A0379967DFA
:1001D700017F011204AE80EE7F147E0012052375A5
:1001E700280220B2237F147E0012052320B20F7B42
:1001F700FF7A0379A67D017F011204AE80EE7F149A
:100207007E0012052375280320B3237F147E001276
:10021700052320B30F7BFF7A0379B67D017F011297
:1002270004AE80EE7F147E001205237528047BFF41
:0D0237007A0379C67D017F011204AEAF2865
:010244002297
:10024500BB010CE58229F582E5833AF583E022506E
:1002550006E92582F8E622BBFE06E92582F8E222B8
:0D026500E58229F582E5833AF583E49322D2
:10027200EF8DF0A4A8F0CF8CF0A428CE8DF0A42EA0
:02028200FE225A
:10028400BC000BBE0029EF8DF084FFADF022E4CC5E
:10029400F875F008EF2FFFEE33FEEC33FCEE9DEC27
:1002A400984005FCEE9DFE0FD5F0E9E4CEFD22ED6D
:1002B400F8F5F0EE8420D21CFEADF075F008EF2FB7
:1002C400FFED33FD4007985006D5F0F222C398FDA8
:0502D4000FD5F0EA2245
:00000001FF
