:030000000204995E
:0C049900787FE4F6D8FD75812A0203E1AB
:1003E10075A0FE12043A12022B8F20E520B401F60B
:0E03F1000521E521C3940240EDE4F52180E8EA
:03000B0002028C62
:0B028C00C0E0C0D075D000C000C0076B
:10029700758A18758CFC051FE51F7002051EC3942F
:1002A700F4E51E94014029751E00751F00E52170B5
:1002B7000DAFA07801EF08800123D8FDF5A0E52157
:1002C700B4010DAFA07801EF08800103D8FDF5A0B8
:0902D700D007D000D0D0D0E032F5
:10045100EF1FAC0670011E4C600A7D027CEFDCFED2
:04046100DDFC80EC52
:010465002274
:06048A00C2A58F80D2A77D
:080490007F027EEFDEFEDFFCBF
:010498002241
:0A04A500C2A612048AC2A702049046
:1003FF00CFCDCFCECCCE1201D67C007D0A1201D646
:04040F00ED2430FFA9
:0A041300D2A612048AC2A7020490C8
:100466007F381204A57F0C1204A57F061204A57F0F
:04047600010204A5D6
:10047A00EDBF0103148002243F4480FF1204A52229
:0A04AF00AC0312047AAF0402041338
:0603BE008B268A27892826
:1003C40012047AE4FDAB26AA27A9288D827583003E
:0C03D400120197FF60061204130D80E96F
:0103E00022FA
:0C038B007F0AEA24FFFDE434FFFC7E0042
:080397008E228F238C248D259A
:10039F007F017E00E4FBEBC39525E5246480F874B0
:0E03AF008098500AAC22AD231201C40B80E8E6
:0103BD00221D
:04041D008A118B12A3
:1004210012047AAA13EAD39400400D12038BAC1183
:08043100AD121203FF1A80ED69
:0104390022A0
:1002E00012047AC3EA64809480400B7F2B120413BB
:1002F0008A0D8B0E800E7F2D120413C3E49BF50E26
:10030000E49AF50DAA0CEAD39400400D12038BACCD
:090310000DAD0E1203FF1A80ED81
:0103190022C1
:04031A008A168B179D
:10031E0012047AAA18EAD3940040297F1012038D92
:10032E00AC16AD17CFCDCFCECCCE1201D6EF540F2B
:10033E00FEC3940AEE5004243080022437FF1204C8
:04034E00131A80D12D
:010352002288
:040353008A1B8B1C5A
:1003570012047AAA1DEAD394004028EA24FFFDE498
:1003670034FFFC7F027E00120397AC1BAD1CCFCD80
:10037700CFCECCCE1201D6EF54012430FF12041396
:030387001A80D207
:01038A002250
:10000E00E4F5297590FFC2932097137F14FE120416
:10001E00513097FD7F147E001204517529012096F0
:10002E00147F147E001204513096FD7F147E001250
:10003E0004517529052095147F147E001204513049
:10004E0095FD7F147E001204517529092094147FAA
:10005E00147E001204513094FD7F147E0012045160
:10006E0075290D7590FFC2922097147F147E001291
:10007E0004513097FD7F147E001204517529022021
:10008E0096147F147E001204513096FD7F147E006C
:10009E001204517529062095147F147E0012045106
:1000AE003095FD7F147E0012045175290A20941498
:1000BE007F147E001204513094FD7F147E001204D2
:1000CE005175290E7590FFC2912097147F147E00F2
:1000DE001204513097FD7F147E00120451752903CE
:1000EE002096147F147E001204513096FD7F147EEC
:1000FE00001204517529072095147F147E001204F6
:10010E00513095FD7F147E0012045175290B2094F9
:10011E00147F147E001204513094FD7F147E001261
:10012E00045175290F7590FFC2902097147F147E8D
:10013E00001204513097FD7F147E00120451752970
:10014E00042096147F147E001204513096FD7F1405
:10015E007E001204517529082095147F147E00121A
:10016E0004513095FD7F147E0012045175290C2028
:10017E0094147F147E001204513094FD7F147E007F
:08018E00120451752910AF297C
:010196002246
:10043A005389F0438901758A18758CFCC28DD28C58
:07044A00D2A9D2AFC2B92212
:10022B00E4F52A20B1137F14FE12045130B1FD7F87
:10023B00147E00120451752A0120B0147F147E0025
:10024B0012045130B0FD7F147E00120451752A0246
:10025B0020B2147F147E0012045130B2FD7F147E45
:10026B0000120451752A0320B3147F147E0012046C
:10027B005130B3FD7F147E00120451752A04AF2A4E
:01028B002250
:10019700BB010CE58229F582E5833AF583E022501D
:1001A70006E92582F8E622BBFE06E92582F8E22267
:0D01B700E58229F582E5833AF583E4932281
:1001C400EF8DF0A4A8F0CF8CF0A428CE8DF0A42E4F
:0201D400FE2209
:1001D600BC000BBE0029EF8DF084FFADF022E4CC0D
:1001E600F875F008EF2FFFEE33FEEC33FCEE9DECD6
:1001F600984005FCEE9DFE0FD5F0E9E4CEFD22ED1C
:10020600F8F5F0EE8420D21CFEADF075F008EF2F65
:10021600FFED33FD4007985006D5F0F222C398FD56
:050226000FD5F0EA22F3
:00000001FF
