:030000000204688F
:0C046800787FE4F6D8FD75812602018C37
:1004370050617373776F72643A004F4B20004552D7
:02044700520061
:10018C001204237BFF7A0479377D017F011203B0BF
:10019C001200038F1CE51C60F724F860F32407247D
:1001AC00F65007603A14607080E6C3E5199405E5D3
:1001BC001894005052AE1AAF1B7C007D0A12026BD1
:1001CC008E1A8F1BE51C75F00A84E5F0251BF51BB8
:1001DC00E4351AF51A0519E519700205188028E599
:1001EC001BB4390DE51AB430087BFF7A04794180D1
:1001FC00067BFF7A0479457D0D7F011203B0E4F58F
:10020C001AF51BF518F519750C05AB1BAA1A7D010F
:10021C007F021203F102019CE4F51AF51BF518F5A7
:10022C0019750C05AB1BAA1A7D017F021203F10292
:02023C00019C23
:10040E00EF1FAC0670011E4C600A7D027CEFDCFE15
:04041E00DDFC80EC95
:0104220022B7
:06045900C2A58F80D2A7AE
:08045F007F027EEFDEFEDFFCF0
:010467002272
:0A047400C2A6120459C2A702045FD9
:1003D300CFCDCFCECCCE12027D7C007D0A12027D22
:0403E300ED2430FFD6
:0A03E700D2A6120459C2A702045F57
:100423007F381204747F0C1204747F061204747FE5
:04043300010204744A
:10044900EDBF0103148002243F4480FF120474228B
:0A047E00AC03120449AF040203E7C7
:0603B0008B088A09890A8E
:1003B600120449E4FDAB08AA09A90A8D82758300D7
:0C03C60012023EFF60061203E70D80E902
:0103D2002208
:0C037D007F0AEA24FFFDE434FFFC7E0050
:080389008E0D8F0E8C0F8D10FC
:100391007F017E00E4FBEBC39510E50F6480F874E8
:0E03A1008098500AAC0DAD0E12026B0B80E876
:0103AF00222B
:0403F1008A0A8B0BDE
:1003F500120449AA0CEAD39400400D12037DAC0AFD
:08040500AD0B1203D31A80EDC8
:01040D0022CC
:1002D200120449C3EA64809480400B7F2B1203E727
:1002E2008A168B17800E7F2D1203E7C3E49BF51746
:1002F200E49AF516AA15EAD39400400D12037DACD8
:0903020016AD171203D31A80EDA9
:01030B0022CF
:04030C008A1F8B2099
:10031000120449AA21EAD3940040297F1012037FD6
:10032000AC1FAD20CFCDCFCECCCE12027DEF540F7F
:10033000FEC3940AEE5004243080022437FF1203D7
:04034000E71A80D167
:010344002296
:040345008A248B2556
:10034900120449AA26EAD394004028EA24FFFDE4CE
:1003590034FFFC7F027E00120389AC24AD25CFCD8A
:10036900CFCECCCE12027DEF54012430FF1203E729
:030379001A80D215
:01037C00225E
:10000300E4F5087590FFC2932097137F14FE120442
:100013000E3097FD7F147E0012040E7508012096A2
:10002300147F147E0012040E3096FD7F147E00129E
:10003300040E7508052095147F147E0012040E30FB
:1000430095FD7F147E0012040E7508092094147F19
:10005300147E0012040E3094FD7F147E0012040EF1
:1000630075080D7590FFC2922097147F147E0012BD
:10007300040E3097FD7F147E0012040E75080220D3
:1000830096147F147E0012040E3096FD7F147E00BA
:1000930012040E7508062095147F147E0012040EB8
:1000A3003095FD7F147E0012040E75080A20941407
:1000B3007F147E0012040E3094FD7F147E00120420
:1000C3000E75080E7590FFC2912097147F147E0061
:1000D30012040E3097FD7F147E0012040E75080380
:1000E3002096147F147E0012040E3096FD7F147E3A
:1000F3000012040E7508072095147F147E00120465
:100103000E3095FD7F147E0012040E75080B2094AB
:10011300147F147E0012040E3094FD7F147E0012AF
:10012300040E75080F7590FFC2902097147F147EFC
:100133000012040E3097FD7F147E0012040E750822
:10014300042096147F147E0012040E3096FD7F1453
:100153007E0012040E7508082095147F147E001289
:10016300040E3095FD7F147E0012040E75080C20DA
:1001730094147F147E0012040E3094FD7F147E00CD
:0801830012040E750810AF080C
:01018B002251
:10023E00BB010CE58229F582E5833AF583E0225075
:10024E0006E92582F8E622BBFE06E92582F8E222BF
:0D025E00E58229F582E5833AF583E49322D9
:10026B00EF8DF0A4A8F0CF8CF0A428CE8DF0A42EA7
:02027B00FE2261
:10027D00BC000BBE0029EF8DF084FFADF022E4CC65
:10028D00F875F008EF2FFFEE33FEEC33FCEE9DEC2E
:10029D00984005FCEE9DFE0FD5F0E9E4CEFD22ED74
:1002AD00F8F5F0EE8420D21CFEADF075F008EF2FBE
:1002BD00FFED33FD4007985006D5F0F222C398FDAF
:0502CD000FD5F0EA224C
:00000001FF
