:030000000203EE0A
:0C03EE00787FE4F6D8FD7581270200033B
:0500030012038F80FED6
:03000B00020309E4
:04030900C0E0C0D0C0
:10030D00758A18758CFC0526E52670020525C394A3
:0F031D00E8E52594034008752500752600B2A079
:05032C00D0D0D0E0324A
:1003A600EF1FAC0670011E4C600A7D027CEFDCFE7E
:0403B600DDFC80ECFE
:0103BA002220
:0603DF00C2A58F80D2A729
:0803E5007F027EEFDEFEDFFC6B
:0103ED0022ED
:0A03FA00C2A61203DFC2A70203E54A
:10035400CFCDCFCECCCE1201D67C007D0A1201D6F1
:04036400ED2430FF55
:0A036800D2A61203DFC2A70203E5CC
:1003BB007F381203FA7F0C1203FA7F061203FA7FBF
:0403CB00010203FA2E
:1003CF00EDBF0103148002243F4480FF1203FA2281
:0A040400AC031203CFAF040203683B
:060331008B228A238924BF
:100337001203CFE4FDAB22AA23A9248D8275830083
:0C034700120197FF60061203680D80E9A8
:010353002287
:0C02D6007F0AEA24FFFDE434FFFC7E00F8
:0802E2008E1E8F1F8C208D2160
:1002EA007F017E00E4FBEBC39521E5206480F8746E
:0E02FA008098500AAC1EAD1F1201C40B80E8A4
:0103080022D2
:040372008A118B124F
:100376001203CFAA13EAD39400400D1202D6AC1191
:08038600AD121203541A80EDC0
:01038E00224C
:10022B001203CFC3EA64809480400B7F2B120368C8
:10023B008A0D8B0E800E7F2D120368C3E49BF50E87
:10024B00E49AF50DAA0CEAD39400400D1202D6AC39
:09025B000DAD0E1203541A80EDE2
:010264002277
:040265008A168B1753
:100269001203CFAA18EAD3940040297F101202D8AA
:10027900AC16AD17CFCDCFCECCCE1201D6EF540FE1
:10028900FEC3940AEE5004243080022437FF12037F
:04029900681A80D18E
:01029D00223E
:04029E008A1B8B1C10
:1002A2001203CFAA1DEAD394004028EA24FFFDE4FA
:1002B20034FFFC7F027E001202E2AC1BAD1CCFCDEC
:1002C200CFCECCCE1201D6EF54012430FF120368F8
:0302D2001A80D2BD
:0102D5002206
:10000E00E4F5277590FFC2932097137F14FE120319
:10001E00A63097FD7F147E001203A6752701209649
:10002E00147F147E001203A63096FD7F147E0012FC
:10003E0003A67527052095147F147E001203A630A3
:10004E0095FD7F147E001203A67527092094147F58
:10005E00147E001203A63094FD7F147E001203A6B8
:10006E0075270D7590FFC2922097147F147E001293
:10007E0003A63097FD7F147E001203A6752702207B
:10008E0096147F147E001203A63096FD7F147E0018
:10009E001203A67527062095147F147E001203A660
:1000AE003095FD7F147E001203A675270A20941446
:1000BE007F147E001203A63094FD7F147E0012037F
:1000CE00A675270E7590FFC2912097147F147E009F
:1000DE001203A63097FD7F147E001203A675270328
:1000EE002096147F147E001203A63096FD7F147E98
:1000FE00001203A67527072095147F147E001203A5
:10010E00A63095FD7F147E001203A675270B209452
:10011E00147F147E001203A63094FD7F147E00120D
:10012E0003A675270F7590FFC2902097147F147E3B
:10013E00001203A63097FD7F147E001203A67527CA
:10014E00042096147F147E001203A63096FD7F14B1
:10015E007E001203A67527082095147F147E0012C8
:10016E0003A63095FD7F147E001203A675270C2082
:10017E0094147F147E001203A63094FD7F147E002B
:08018E001203A6752710AF272C
:010196002246
:10038F005389F0438901758A18758CFCC28DD28C04
:07039F00D2A9D2AFC2B922BE
:10019700BB010CE58229F582E5833AF583E022501D
:1001A70006E92582F8E622BBFE06E92582F8E22267
:0D01B700E58229F582E5833AF583E4932281
:1001C400EF8DF0A4A8F0CF8CF0A428CE8DF0A42E4F
:0201D400FE2209
:1001D600BC000BBE0029EF8DF084FFADF022E4CC0D
:1001E600F875F008EF2FFFEE33FEEC33FCEE9DECD6
:1001F600984005FCEE9DFE0FD5F0E9E4CEFD22ED1C
:10020600F8F5F0EE8420D21CFEADF075F008EF2F65
:10021600FFED33FD4007985006D5F0F222C398FD56
:050226000FD5F0EA22F3
:00000001FF
